{
  "contractName": "TKNToken",
  "abi": [
    {
      "inputs": [],
      "stateMutability": "nonpayable",
      "type": "constructor"
    },
    {
      "inputs": [
        {
          "internalType": "address",
          "name": "spender",
          "type": "address"
        },
        {
          "internalType": "uint256",
          "name": "allowance",
          "type": "uint256"
        },
        {
          "internalType": "uint256",
          "name": "needed",
          "type": "uint256"
        }
      ],
      "name": "ERC20InsufficientAllowance",
      "type": "error"
    },
    {
      "inputs": [
        {
          "internalType": "address",
          "name": "sender",
          "type": "address"
        },
        {
          "internalType": "uint256",
          "name": "balance",
          "type": "uint256"
        },
        {
          "internalType": "uint256",
          "name": "needed",
          "type": "uint256"
        }
      ],
      "name": "ERC20InsufficientBalance",
      "type": "error"
    },
    {
      "inputs": [
        {
          "internalType": "address",
          "name": "approver",
          "type": "address"
        }
      ],
      "name": "ERC20InvalidApprover",
      "type": "error"
    },
    {
      "inputs": [
        {
          "internalType": "address",
          "name": "receiver",
          "type": "address"
        }
      ],
      "name": "ERC20InvalidReceiver",
      "type": "error"
    },
    {
      "inputs": [
        {
          "internalType": "address",
          "name": "sender",
          "type": "address"
        }
      ],
      "name": "ERC20InvalidSender",
      "type": "error"
    },
    {
      "inputs": [
        {
          "internalType": "address",
          "name": "spender",
          "type": "address"
        }
      ],
      "name": "ERC20InvalidSpender",
      "type": "error"
    },
    {
      "inputs": [
        {
          "internalType": "address",
          "name": "owner",
          "type": "address"
        }
      ],
      "name": "OwnableInvalidOwner",
      "type": "error"
    },
    {
      "inputs": [
        {
          "internalType": "address",
          "name": "account",
          "type": "address"
        }
      ],
      "name": "OwnableUnauthorizedAccount",
      "type": "error"
    },
    {
      "anonymous": false,
      "inputs": [
        {
          "indexed": true,
          "internalType": "address",
          "name": "owner",
          "type": "address"
        },
        {
          "indexed": true,
          "internalType": "address",
          "name": "spender",
          "type": "address"
        },
        {
          "indexed": false,
          "internalType": "uint256",
          "name": "value",
          "type": "uint256"
        }
      ],
      "name": "Approval",
      "type": "event"
    },
    {
      "anonymous": false,
      "inputs": [
        {
          "indexed": true,
          "internalType": "address",
          "name": "donor",
          "type": "address"
        },
        {
          "indexed": false,
          "internalType": "uint256",
          "name": "amount",
          "type": "uint256"
        },
        {
          "indexed": false,
          "internalType": "string",
          "name": "cause",
          "type": "string"
        }
      ],
      "name": "DonationMade",
      "type": "event"
    },
    {
      "anonymous": false,
      "inputs": [
        {
          "indexed": true,
          "internalType": "address",
          "name": "previousOwner",
          "type": "address"
        },
        {
          "indexed": true,
          "internalType": "address",
          "name": "newOwner",
          "type": "address"
        }
      ],
      "name": "OwnershipTransferred",
      "type": "event"
    },
    {
      "anonymous": false,
      "inputs": [
        {
          "indexed": false,
          "internalType": "string",
          "name": "name",
          "type": "string"
        },
        {
          "indexed": false,
          "internalType": "string",
          "name": "description",
          "type": "string"
        },
        {
          "indexed": false,
          "internalType": "uint256",
          "name": "discountRate",
          "type": "uint256"
        }
      ],
      "name": "PartnerAdded",
      "type": "event"
    },
    {
      "anonymous": false,
      "inputs": [
        {
          "indexed": false,
          "internalType": "string",
          "name": "name",
          "type": "string"
        },
        {
          "indexed": false,
          "internalType": "string",
          "name": "description",
          "type": "string"
        },
        {
          "indexed": false,
          "internalType": "uint256",
          "name": "discountRate",
          "type": "uint256"
        }
      ],
      "name": "PartnerUpdated",
      "type": "event"
    },
    {
      "anonymous": false,
      "inputs": [
        {
          "indexed": true,
          "internalType": "address",
          "name": "from",
          "type": "address"
        },
        {
          "indexed": false,
          "internalType": "uint256",
          "name": "amount",
          "type": "uint256"
        },
        {
          "indexed": false,
          "internalType": "string",
          "name": "description",
          "type": "string"
        },
        {
          "indexed": false,
          "internalType": "string",
          "name": "partner",
          "type": "string"
        }
      ],
      "name": "TokensBurned",
      "type": "event"
    },
    {
      "anonymous": false,
      "inputs": [
        {
          "indexed": true,
          "internalType": "address",
          "name": "to",
          "type": "address"
        },
        {
          "indexed": false,
          "internalType": "uint256",
          "name": "usdSpent",
          "type": "uint256"
        },
        {
          "indexed": false,
          "internalType": "uint256",
          "name": "tokens",
          "type": "uint256"
        },
        {
          "indexed": false,
          "internalType": "string",
          "name": "description",
          "type": "string"
        },
        {
          "indexed": false,
          "internalType": "string",
          "name": "partner",
          "type": "string"
        }
      ],
      "name": "TokensRewarded",
      "type": "event"
    },
    {
      "anonymous": false,
      "inputs": [
        {
          "indexed": true,
          "internalType": "address",
          "name": "from",
          "type": "address"
        },
        {
          "indexed": true,
          "internalType": "address",
          "name": "to",
          "type": "address"
        },
        {
          "indexed": false,
          "internalType": "uint256",
          "name": "value",
          "type": "uint256"
        }
      ],
      "name": "Transfer",
      "type": "event"
    },
    {
      "inputs": [
        {
          "internalType": "address",
          "name": "owner",
          "type": "address"
        },
        {
          "internalType": "address",
          "name": "spender",
          "type": "address"
        }
      ],
      "name": "allowance",
      "outputs": [
        {
          "internalType": "uint256",
          "name": "",
          "type": "uint256"
        }
      ],
      "stateMutability": "view",
      "type": "function",
      "constant": true
    },
    {
      "inputs": [
        {
          "internalType": "address",
          "name": "spender",
          "type": "address"
        },
        {
          "internalType": "uint256",
          "name": "value",
          "type": "uint256"
        }
      ],
      "name": "approve",
      "outputs": [
        {
          "internalType": "bool",
          "name": "",
          "type": "bool"
        }
      ],
      "stateMutability": "nonpayable",
      "type": "function"
    },
    {
      "inputs": [
        {
          "internalType": "address",
          "name": "account",
          "type": "address"
        }
      ],
      "name": "balanceOf",
      "outputs": [
        {
          "internalType": "uint256",
          "name": "",
          "type": "uint256"
        }
      ],
      "stateMutability": "view",
      "type": "function",
      "constant": true
    },
    {
      "inputs": [],
      "name": "decimals",
      "outputs": [
        {
          "internalType": "uint8",
          "name": "",
          "type": "uint8"
        }
      ],
      "stateMutability": "view",
      "type": "function",
      "constant": true
    },
    {
      "inputs": [
        {
          "internalType": "uint256",
          "name": "",
          "type": "uint256"
        }
      ],
      "name": "donations",
      "outputs": [
        {
          "internalType": "address",
          "name": "donor",
          "type": "address"
        },
        {
          "internalType": "uint256",
          "name": "amount",
          "type": "uint256"
        },
        {
          "internalType": "string",
          "name": "cause",
          "type": "string"
        },
        {
          "internalType": "uint256",
          "name": "timestamp",
          "type": "uint256"
        }
      ],
      "stateMutability": "view",
      "type": "function",
      "constant": true
    },
    {
      "inputs": [],
      "name": "name",
      "outputs": [
        {
          "internalType": "string",
          "name": "",
          "type": "string"
        }
      ],
      "stateMutability": "view",
      "type": "function",
      "constant": true
    },
    {
      "inputs": [],
      "name": "owner",
      "outputs": [
        {
          "internalType": "address",
          "name": "",
          "type": "address"
        }
      ],
      "stateMutability": "view",
      "type": "function",
      "constant": true
    },
    {
      "inputs": [
        {
          "internalType": "uint256",
          "name": "",
          "type": "uint256"
        }
      ],
      "name": "partnerNames",
      "outputs": [
        {
          "internalType": "string",
          "name": "",
          "type": "string"
        }
      ],
      "stateMutability": "view",
      "type": "function",
      "constant": true
    },
    {
      "inputs": [
        {
          "internalType": "string",
          "name": "",
          "type": "string"
        }
      ],
      "name": "partners",
      "outputs": [
        {
          "internalType": "string",
          "name": "name",
          "type": "string"
        },
        {
          "internalType": "string",
          "name": "description",
          "type": "string"
        },
        {
          "internalType": "uint256",
          "name": "discountRate",
          "type": "uint256"
        },
        {
          "internalType": "bool",
          "name": "isActive",
          "type": "bool"
        }
      ],
      "stateMutability": "view",
      "type": "function",
      "constant": true
    },
    {
      "inputs": [],
      "name": "renounceOwnership",
      "outputs": [],
      "stateMutability": "nonpayable",
      "type": "function"
    },
    {
      "inputs": [],
      "name": "symbol",
      "outputs": [
        {
          "internalType": "string",
          "name": "",
          "type": "string"
        }
      ],
      "stateMutability": "view",
      "type": "function",
      "constant": true
    },
    {
      "inputs": [],
      "name": "totalSupply",
      "outputs": [
        {
          "internalType": "uint256",
          "name": "",
          "type": "uint256"
        }
      ],
      "stateMutability": "view",
      "type": "function",
      "constant": true
    },
    {
      "inputs": [
        {
          "internalType": "address",
          "name": "to",
          "type": "address"
        },
        {
          "internalType": "uint256",
          "name": "value",
          "type": "uint256"
        }
      ],
      "name": "transfer",
      "outputs": [
        {
          "internalType": "bool",
          "name": "",
          "type": "bool"
        }
      ],
      "stateMutability": "nonpayable",
      "type": "function"
    },
    {
      "inputs": [
        {
          "internalType": "address",
          "name": "from",
          "type": "address"
        },
        {
          "internalType": "address",
          "name": "to",
          "type": "address"
        },
        {
          "internalType": "uint256",
          "name": "value",
          "type": "uint256"
        }
      ],
      "name": "transferFrom",
      "outputs": [
        {
          "internalType": "bool",
          "name": "",
          "type": "bool"
        }
      ],
      "stateMutability": "nonpayable",
      "type": "function"
    },
    {
      "inputs": [
        {
          "internalType": "address",
          "name": "newOwner",
          "type": "address"
        }
      ],
      "name": "transferOwnership",
      "outputs": [],
      "stateMutability": "nonpayable",
      "type": "function"
    },
    {
      "inputs": [
        {
          "internalType": "string",
          "name": "name",
          "type": "string"
        },
        {
          "internalType": "string",
          "name": "description",
          "type": "string"
        },
        {
          "internalType": "uint256",
          "name": "discountRate",
          "type": "uint256"
        }
      ],
      "name": "addPartner",
      "outputs": [],
      "stateMutability": "nonpayable",
      "type": "function"
    },
    {
      "inputs": [
        {
          "internalType": "string",
          "name": "name",
          "type": "string"
        },
        {
          "internalType": "string",
          "name": "description",
          "type": "string"
        },
        {
          "internalType": "uint256",
          "name": "discountRate",
          "type": "uint256"
        }
      ],
      "name": "updatePartner",
      "outputs": [],
      "stateMutability": "nonpayable",
      "type": "function"
    },
    {
      "inputs": [
        {
          "internalType": "string",
          "name": "name",
          "type": "string"
        },
        {
          "internalType": "bool",
          "name": "isActive",
          "type": "bool"
        }
      ],
      "name": "togglePartner",
      "outputs": [],
      "stateMutability": "nonpayable",
      "type": "function"
    },
    {
      "inputs": [
        {
          "internalType": "address",
          "name": "to",
          "type": "address"
        },
        {
          "internalType": "uint256",
          "name": "usdSpent",
          "type": "uint256"
        }
      ],
      "name": "rewardPurchase",
      "outputs": [],
      "stateMutability": "nonpayable",
      "type": "function"
    },
    {
      "inputs": [
        {
          "internalType": "uint256",
          "name": "amount",
          "type": "uint256"
        },
        {
          "internalType": "string",
          "name": "description",
          "type": "string"
        }
      ],
      "name": "burn",
      "outputs": [],
      "stateMutability": "nonpayable",
      "type": "function"
    },
    {
      "inputs": [
        {
          "internalType": "uint256",
          "name": "amount",
          "type": "uint256"
        },
        {
          "internalType": "string",
          "name": "cause",
          "type": "string"
        }
      ],
      "name": "donate",
      "outputs": [],
      "stateMutability": "nonpayable",
      "type": "function"
    },
    {
      "inputs": [
        {
          "internalType": "address",
          "name": "user",
          "type": "address"
        },
        {
          "internalType": "uint256",
          "name": "amount",
          "type": "uint256"
        },
        {
          "internalType": "string",
          "name": "partnerName",
          "type": "string"
        }
      ],
      "name": "redeemPartnerReward",
      "outputs": [],
      "stateMutability": "nonpayable",
      "type": "function"
    },
    {
      "inputs": [],
      "name": "getActivePartners",
      "outputs": [
        {
          "components": [
            {
              "internalType": "string",
              "name": "name",
              "type": "string"
            },
            {
              "internalType": "string",
              "name": "description",
              "type": "string"
            },
            {
              "internalType": "uint256",
              "name": "discountRate",
              "type": "uint256"
            },
            {
              "internalType": "bool",
              "name": "isActive",
              "type": "bool"
            }
          ],
          "internalType": "struct TKNToken.Partner[]",
          "name": "",
          "type": "tuple[]"
        }
      ],
      "stateMutability": "view",
      "type": "function",
      "constant": true
    },
    {
      "inputs": [
        {
          "internalType": "address",
          "name": "donor",
          "type": "address"
        }
      ],
      "name": "getDonations",
      "outputs": [
        {
          "components": [
            {
              "internalType": "address",
              "name": "donor",
              "type": "address"
            },
            {
              "internalType": "uint256",
              "name": "amount",
              "type": "uint256"
            },
            {
              "internalType": "string",
              "name": "cause",
              "type": "string"
            },
            {
              "internalType": "uint256",
              "name": "timestamp",
              "type": "uint256"
            }
          ],
          "internalType": "struct TKNToken.Donation[]",
          "name": "",
          "type": "tuple[]"
        }
      ],
      "stateMutability": "view",
      "type": "function",
      "constant": true
    },
    {
      "inputs": [
        {
          "internalType": "address",
          "name": "to",
          "type": "address"
        },
        {
          "internalType": "uint256",
          "name": "amount",
          "type": "uint256"
        }
      ],
      "name": "mint",
      "outputs": [],
      "stateMutability": "nonpayable",
      "type": "function"
    }
  ],
  "bytecode": "0x608060405234801562000010575f80fd5b50336040518060400160405280600d81526020017f546f6b656e2052657761726473000000000000000000000000000000000000008152506040518060400160405280600381526020017f544b4e000000000000000000000000000000000000000000000000000000000081525081600390816200008f919062000a20565b508060049081620000a1919062000a20565b5050505f73ffffffffffffffffffffffffffffffffffffffff168173ffffffffffffffffffffffffffffffffffffffff160362000117575f6040517f1e4fbdf70000000000000000000000000000000000000000000000000000000081526004016200010e919062000b47565b60405180910390fd5b6200012881620002c460201b60201c565b506200014433683635c9adc5dea000006200038760201b60201c565b620001c26040518060400160405280601281526020017f416d617a6f6e204769667420436f75706f6e00000000000000000000000000008152506040518060400160405280600a81526020017f452d436f6d6d6572636500000000000000000000000000000000000000000000815250601e6200041160201b60201c565b620002406040518060400160405280601581526020017f4170706c652053746f72652047696674204361726400000000000000000000008152506040518060400160405280600a81526020017f546563682053746f72650000000000000000000000000000000000000000000081525060146200041160201b60201c565b620002be6040518060400160405280600481526020017f58626f78000000000000000000000000000000000000000000000000000000008152506040518060400160405280600681526020017f47616d696e670000000000000000000000000000000000000000000000000000815250600f6200041160201b60201c565b62000dc9565b5f60055f9054906101000a900473ffffffffffffffffffffffffffffffffffffffff1690508160055f6101000a81548173ffffffffffffffffffffffffffffffffffffffff021916908373ffffffffffffffffffffffffffffffffffffffff1602179055508173ffffffffffffffffffffffffffffffffffffffff168173ffffffffffffffffffffffffffffffffffffffff167f8be0079c531659141344cd1fd0a4f28419497f9722a3daafe3b4186f6b6457e060405160405180910390a35050565b5f73ffffffffffffffffffffffffffffffffffffffff168273ffffffffffffffffffffffffffffffffffffffff1603620003fa575f6040517fec442f05000000000000000000000000000000000000000000000000000000008152600401620003f1919062000b47565b60405180910390fd5b6200040d5f83836200059860201b60201c565b5050565b60068360405162000423919062000bcc565b90815260200160405180910390206003015f9054906101000a900460ff161562000484576040517f08c379a00000000000000000000000000000000000000000000000000000000081526004016200047b9062000c42565b60405180910390fd5b604051806080016040528084815260200183815260200182815260200160011515815250600684604051620004ba919062000bcc565b90815260200160405180910390205f820151815f019081620004dd919062000a20565b506020820151816001019081620004f5919062000a20565b50604082015181600201556060820151816003015f6101000a81548160ff021916908315150217905550905050600783908060018154018082558091505060019003905f5260205f20015f90919091909150908162000555919062000a20565b507f4eac3655df424f8573afa99f7a60e0fbfe869e4b5f2e9e47ab6458050f6676d78383836040516200058b9392919062000cc3565b60405180910390a1505050565b5f73ffffffffffffffffffffffffffffffffffffffff168373ffffffffffffffffffffffffffffffffffffffff1603620005ec578060025f828254620005df919062000d39565b92505081905550620006bd565b5f805f8573ffffffffffffffffffffffffffffffffffffffff1673ffffffffffffffffffffffffffffffffffffffff1681526020019081526020015f205490508181101562000678578381836040517fe450d38c0000000000000000000000000000000000000000000000000000000081526004016200066f9392919062000d73565b60405180910390fd5b8181035f808673ffffffffffffffffffffffffffffffffffffffff1673ffffffffffffffffffffffffffffffffffffffff1681526020019081526020015f2081905550505b5f73ffffffffffffffffffffffffffffffffffffffff168273ffffffffffffffffffffffffffffffffffffffff160362000706578060025f828254039250508190555062000750565b805f808473ffffffffffffffffffffffffffffffffffffffff1673ffffffffffffffffffffffffffffffffffffffff1681526020019081526020015f205f82825401925050819055505b8173ffffffffffffffffffffffffffffffffffffffff168373ffffffffffffffffffffffffffffffffffffffff167fddf252ad1be2c89b69c2b068fc378daa952ba7f163c4a11628f55a4df523b3ef83604051620007af919062000dae565b60405180910390a3505050565b5f81519050919050565b7f4e487b71000000000000000000000000000000000000000000000000000000005f52604160045260245ffd5b7f4e487b71000000000000000000000000000000000000000000000000000000005f52602260045260245ffd5b5f60028204905060018216806200083857607f821691505b6020821081036200084e576200084d620007f3565b5b50919050565b5f819050815f5260205f209050919050565b5f6020601f8301049050919050565b5f82821b905092915050565b5f60088302620008b27fffffffffffffffffffffffffffffffffffffffffffffffffffffffffffffffff8262000875565b620008be868362000875565b95508019841693508086168417925050509392505050565b5f819050919050565b5f819050919050565b5f6200090862000902620008fc84620008d6565b620008df565b620008d6565b9050919050565b5f819050919050565b6200092383620008e8565b6200093b62000932826200090f565b84845462000881565b825550505050565b5f90565b6200095162000943565b6200095e81848462000918565b505050565b5b818110156200098557620009795f8262000947565b60018101905062000964565b5050565b601f821115620009d4576200099e8162000854565b620009a98462000866565b81016020851015620009b9578190505b620009d1620009c88562000866565b83018262000963565b50505b505050565b5f82821c905092915050565b5f620009f65f1984600802620009d9565b1980831691505092915050565b5f62000a108383620009e5565b9150826002028217905092915050565b62000a2b82620007bc565b67ffffffffffffffff81111562000a475762000a46620007c6565b5b62000a53825462000820565b62000a6082828562000989565b5f60209050601f83116001811462000a96575f841562000a81578287015190505b62000a8d858262000a03565b86555062000afc565b601f19841662000aa68662000854565b5f5b8281101562000acf5784890151825560018201915060208501945060208101905062000aa8565b8683101562000aef578489015162000aeb601f891682620009e5565b8355505b6001600288020188555050505b505050505050565b5f73ffffffffffffffffffffffffffffffffffffffff82169050919050565b5f62000b2f8262000b04565b9050919050565b62000b418162000b23565b82525050565b5f60208201905062000b5c5f83018462000b36565b92915050565b5f81905092915050565b5f5b8381101562000b8b57808201518184015260208101905062000b6e565b5f8484015250505050565b5f62000ba282620007bc565b62000bae818562000b62565b935062000bc081856020860162000b6c565b80840191505092915050565b5f62000bd9828462000b96565b915081905092915050565b5f82825260208201905092915050565b7f506172746e657220616c726561647920657869737473000000000000000000005f82015250565b5f62000c2a60168362000be4565b915062000c378262000bf4565b602082019050919050565b5f6020820190508181035f83015262000c5b8162000c1c565b9050919050565b5f601f19601f8301169050919050565b5f62000c7e82620007bc565b62000c8a818562000be4565b935062000c9c81856020860162000b6c565b62000ca78162000c62565b840191505092915050565b62000cbd81620008d6565b82525050565b5f6060820190508181035f83015262000cdd818662000c72565b9050818103602083015262000cf3818562000c72565b905062000d04604083018462000cb2565b949350505050565b7f4e487b71000000000000000000000000000000000000000000000000000000005f52601160045260245ffd5b5f62000d4582620008d6565b915062000d5283620008d6565b925082820190508082111562000d6d5762000d6c62000d0c565b5b92915050565b5f60608201905062000d885f83018662000b36565b62000d97602083018562000cb2565b62000da6604083018462000cb2565b949350505050565b5f60208201905062000dc35f83018462000cb2565b92915050565b6136f28062000dd75f395ff3fe608060405234801561000f575f80fd5b5060043610610171575f3560e01c80638d59d1f1116100dc578063c198208211610095578063ddb9c3f41161006f578063ddb9c3f41461045e578063f2fde38b1461047a578063f6d313ad14610496578063f8626af8146104b257610171565b8063c1982082146103f6578063c2007af414610412578063dd62ed3e1461042e57610171565b80638d59d1f1146103345780638da5cb5b1461035057806395d89b411461036e578063a1162b411461038c578063a9059cbb146103a8578063ae7adac4146103d857610171565b80632acd01f81161012e5780632acd01f814610271578063313ce567146102a457806340c10f19146102c257806370a08231146102de578063715018a61461030e5780637641e6f31461031857610171565b806306fdde0314610175578063095ea7b31461019357806318160ddd146101c35780631910bdc2146101e15780631b9f0f5d1461021157806323b872dd14610241575b5f80fd5b61017d6104e5565b60405161018a91906122e1565b60405180910390f35b6101ad60048036038101906101a8919061239f565b610575565b6040516101ba91906123f7565b60405180910390f35b6101cb610597565b6040516101d8919061241f565b60405180910390f35b6101fb60048036038101906101f69190612438565b6105a0565b60405161020891906125e4565b60405180910390f35b61022b60048036038101906102269190612604565b610893565b60405161023891906122e1565b60405180910390f35b61025b6004803603810190610256919061262f565b610939565b60405161026891906123f7565b60405180910390f35b61028b600480360381019061028691906127ab565b610967565b60405161029b94939291906127f2565b60405180910390f35b6102ac610ac3565b6040516102b9919061285e565b60405180910390f35b6102dc60048036038101906102d7919061239f565b610acb565b005b6102f860048036038101906102f39190612438565b610ae1565b604051610305919061241f565b60405180910390f35b610316610b26565b005b610332600480360381019061032d9190612877565b610b39565b005b61034e60048036038101906103499190612877565b610bd9565b005b610358610e02565b60405161036591906128e0565b60405180910390f35b610376610e2a565b60405161038391906122e1565b60405180910390f35b6103a660048036038101906103a191906128f9565b610eba565b005b6103c260048036038101906103bd919061239f565b610ed2565b6040516103cf91906123f7565b60405180910390f35b6103e0610ef4565b6040516103ed9190612ab2565b60405180910390f35b610410600480360381019061040b9190612afc565b6111fd565b005b61042c6004803603810190610427919061239f565b6112af565b005b61044860048036038101906104439190612b56565b6113f9565b604051610455919061241f565b60405180910390f35b61047860048036038101906104739190612b94565b61147b565b005b610494600480360381019061048f9190612438565b611642565b005b6104b060048036038101906104ab91906128f9565b6116c6565b005b6104cc60048036038101906104c79190612604565b6117d0565b6040516104dc9493929190612c00565b60405180910390f35b6060600380546104f490612c77565b80601f016020809104026020016040519081016040528092919081815260200182805461052090612c77565b801561056b5780601f106105425761010080835404028352916020019161056b565b820191905f5260205f20905b81548152906001019060200180831161054e57829003601f168201915b5050505050905090565b5f8061057f6118b0565b905061058c8185856118b7565b600191505092915050565b5f600254905090565b60605f805b600880549050811015610648578373ffffffffffffffffffffffffffffffffffffffff16600882815481106105dd576105dc612ca7565b5b905f5260205f2090600402015f015f9054906101000a900473ffffffffffffffffffffffffffffffffffffffff1673ffffffffffffffffffffffffffffffffffffffff160361063557818061063190612d01565b9250505b808061064090612d01565b9150506105a5565b505f8167ffffffffffffffff81111561066457610663612687565b5b60405190808252806020026020018201604052801561069d57816020015b61068a6121f4565b8152602001906001900390816106825790505b5090505f805b600880549050811015610887578573ffffffffffffffffffffffffffffffffffffffff16600882815481106106db576106da612ca7565b5b905f5260205f2090600402015f015f9054906101000a900473ffffffffffffffffffffffffffffffffffffffff1673ffffffffffffffffffffffffffffffffffffffff1603610874576008818154811061073857610737612ca7565b5b905f5260205f2090600402016040518060800160405290815f82015f9054906101000a900473ffffffffffffffffffffffffffffffffffffffff1673ffffffffffffffffffffffffffffffffffffffff1673ffffffffffffffffffffffffffffffffffffffff168152602001600182015481526020016002820180546107bd90612c77565b80601f01602080910402602001604051908101604052809291908181526020018280546107e990612c77565b80156108345780601f1061080b57610100808354040283529160200191610834565b820191905f5260205f20905b81548152906001019060200180831161081757829003601f168201915b5050505050815260200160038201548152505083838151811061085a57610859612ca7565b5b6020026020010181905250818061087090612d01565b9250505b808061087f90612d01565b9150506106a3565b50819350505050919050565b600781815481106108a2575f80fd5b905f5260205f20015f9150905080546108ba90612c77565b80601f01602080910402602001604051908101604052809291908181526020018280546108e690612c77565b80156109315780601f1061090857610100808354040283529160200191610931565b820191905f5260205f20905b81548152906001019060200180831161091457829003601f168201915b505050505081565b5f806109436118b0565b90506109508582856118c9565b61095b85858561195c565b60019150509392505050565b6006818051602081018201805184825260208301602085012081835280955050505050505f91509050805f01805461099e90612c77565b80601f01602080910402602001604051908101604052809291908181526020018280546109ca90612c77565b8015610a155780601f106109ec57610100808354040283529160200191610a15565b820191905f5260205f20905b8154815290600101906020018083116109f857829003601f168201915b505050505090806001018054610a2a90612c77565b80601f0160208091040260200160405190810160405280929190818152602001828054610a5690612c77565b8015610aa15780601f10610a7857610100808354040283529160200191610aa1565b820191905f5260205f20905b815481529060010190602001808311610a8457829003601f168201915b505050505090806002015490806003015f9054906101000a900460ff16905084565b5f6012905090565b610ad3611a4c565b610add8282611ad3565b5050565b5f805f8373ffffffffffffffffffffffffffffffffffffffff1673ffffffffffffffffffffffffffffffffffffffff1681526020019081526020015f20549050919050565b610b2e611a4c565b610b375f611b52565b565b5f8211610b7b576040517f08c379a0000000000000000000000000000000000000000000000000000000008152600401610b7290612d92565b60405180910390fd5b610b853383611c15565b3373ffffffffffffffffffffffffffffffffffffffff167f2a066751a36c75b553499234e316ad38eb2c4501f2d16bf7cb8245bea536fe818383604051610bcd929190612dd3565b60405180910390a25050565b5f8211610c1b576040517f08c379a0000000000000000000000000000000000000000000000000000000008152600401610c1290612d92565b60405180910390fd5b81610c2533610ae1565b1015610c66576040517f08c379a0000000000000000000000000000000000000000000000000000000008152600401610c5d90612e5e565b60405180910390fd5b610c703383611c15565b600860405180608001604052803373ffffffffffffffffffffffffffffffffffffffff16815260200184815260200183815260200142815250908060018154018082558091505060019003905f5260205f2090600402015f909190919091505f820151815f015f6101000a81548173ffffffffffffffffffffffffffffffffffffffff021916908373ffffffffffffffffffffffffffffffffffffffff160217905550602082015181600101556040820151816002019081610d329190613019565b506060820151816003015550503373ffffffffffffffffffffffffffffffffffffffff167f8055909329a96ddf80fb18dde60b1b90058da99c270e0d0960a6633e8313ac298383604051610d879291906130e8565b60405180910390a23373ffffffffffffffffffffffffffffffffffffffff167f2a066751a36c75b553499234e316ad38eb2c4501f2d16bf7cb8245bea536fe818383604051602001610dd9919061319a565b604051602081830303815290604052604051610df6929190612dd3565b60405180910390a25050565b5f60055f9054906101000a900473ffffffffffffffffffffffffffffffffffffffff16905090565b606060048054610e3990612c77565b80601f0160208091040260200160405190810160405280929190818152602001828054610e6590612c77565b8015610eb05780601f10610e8757610100808354040283529160200191610eb0565b820191905f5260205f20905b815481529060010190602001808311610e9357829003601f168201915b5050505050905090565b610ec2611a4c565b610ecd838383611c94565b505050565b5f80610edc6118b0565b9050610ee981858561195c565b600191505092915050565b60605f805b600780549050811015610f7657600660078281548110610f1c57610f1b612ca7565b5b905f5260205f2001604051610f31919061323b565b90815260200160405180910390206003015f9054906101000a900460ff1615610f63578180610f5f90612d01565b9250505b8080610f6e90612d01565b915050610ef9565b505f8167ffffffffffffffff811115610f9257610f91612687565b5b604051908082528060200260200182016040528015610fcb57816020015b610fb861222f565b815260200190600190039081610fb05790505b5090505f805b6007805490508110156111f357600660078281548110610ff457610ff3612ca7565b5b905f5260205f2001604051611009919061323b565b90815260200160405180910390206003015f9054906101000a900460ff16156111e05760066007828154811061104257611041612ca7565b5b905f5260205f2001604051611057919061323b565b90815260200160405180910390206040518060800160405290815f8201805461107f90612c77565b80601f01602080910402602001604051908101604052809291908181526020018280546110ab90612c77565b80156110f65780601f106110cd576101008083540402835291602001916110f6565b820191905f5260205f20905b8154815290600101906020018083116110d957829003601f168201915b5050505050815260200160018201805461110f90612c77565b80601f016020809104026020016040519081016040528092919081815260200182805461113b90612c77565b80156111865780601f1061115d57610100808354040283529160200191611186565b820191905f5260205f20905b81548152906001019060200180831161116957829003601f168201915b5050505050815260200160028201548152602001600382015f9054906101000a900460ff1615151515815250508383815181106111c6576111c5612ca7565b5b602002602001018190525081806111dc90612d01565b9250505b80806111eb90612d01565b915050610fd1565b5081935050505090565b611205611a4c565b5f6006836040516112169190613251565b90815260200160405180910390205f01805461123190612c77565b905011611273576040517f08c379a000000000000000000000000000000000000000000000000000000000815260040161126a906132b1565b60405180910390fd5b806006836040516112849190613251565b90815260200160405180910390206003015f6101000a81548160ff0219169083151502179055505050565b5f73ffffffffffffffffffffffffffffffffffffffff168273ffffffffffffffffffffffffffffffffffffffff160361131d576040517f08c379a000000000000000000000000000000000000000000000000000000000815260040161131490613319565b60405180910390fd5b5f811161135f576040517f08c379a000000000000000000000000000000000000000000000000000000000815260040161135690612d92565b60405180910390fd5b5f6036600a670de0b6b3a764000060058561137a9190613337565b6113849190613337565b61138e91906133a5565b61139891906133a5565b90506113a48382611ad3565b8273ffffffffffffffffffffffffffffffffffffffff167f588218a6da34ce51c8eb6577af01dae294f49405694967e829e741a96b3d3f5383836040516113ec929190613469565b60405180910390a2505050565b5f60015f8473ffffffffffffffffffffffffffffffffffffffff1673ffffffffffffffffffffffffffffffffffffffff1681526020019081526020015f205f8373ffffffffffffffffffffffffffffffffffffffff1673ffffffffffffffffffffffffffffffffffffffff1681526020019081526020015f2054905092915050565b5f73ffffffffffffffffffffffffffffffffffffffff168373ffffffffffffffffffffffffffffffffffffffff16036114e9576040517f08c379a00000000000000000000000000000000000000000000000000000000081526004016114e090613319565b60405180910390fd5b5f821161152b576040517f08c379a000000000000000000000000000000000000000000000000000000000815260040161152290612d92565b60405180910390fd5b8161153584610ae1565b1015611576576040517f08c379a000000000000000000000000000000000000000000000000000000000815260040161156d90612e5e565b60405180910390fd5b6006816040516115869190613251565b90815260200160405180910390206003015f9054906101000a900460ff166115e3576040517f08c379a00000000000000000000000000000000000000000000000000000000081526004016115da90613500565b60405180910390fd5b6115ed8383611c15565b8273ffffffffffffffffffffffffffffffffffffffff167f2a066751a36c75b553499234e316ad38eb2c4501f2d16bf7cb8245bea536fe818383604051611635929190613568565b60405180910390a2505050565b61164a611a4c565b5f73ffffffffffffffffffffffffffffffffffffffff168173ffffffffffffffffffffffffffffffffffffffff16036116ba575f6040517f1e4fbdf70000000000000000000000000000000000000000000000000000000081526004016116b191906128e0565b60405180910390fd5b6116c381611b52565b50565b6116ce611a4c565b6006836040516116de9190613251565b90815260200160405180910390206003015f9054906101000a900460ff1661173b576040517f08c379a0000000000000000000000000000000000000000000000000000000008152600401611732906132b1565b60405180910390fd5b8160068460405161174c9190613251565b908152602001604051809103902060010190816117699190613019565b508060068460405161177b9190613251565b9081526020016040518091039020600201819055507fd6576c2164febc4319a74db011eea4d3a6c8ff3e4108a854c763ed453e190ce98383836040516117c3939291906135a9565b60405180910390a1505050565b600881815481106117df575f80fd5b905f5260205f2090600402015f91509050805f015f9054906101000a900473ffffffffffffffffffffffffffffffffffffffff169080600101549080600201805461182990612c77565b80601f016020809104026020016040519081016040528092919081815260200182805461185590612c77565b80156118a05780601f10611877576101008083540402835291602001916118a0565b820191905f5260205f20905b81548152906001019060200180831161188357829003601f168201915b5050505050908060030154905084565b5f33905090565b6118c48383836001611e0c565b505050565b5f6118d484846113f9565b90507fffffffffffffffffffffffffffffffffffffffffffffffffffffffffffffffff8110156119565781811015611947578281836040517ffb8f41b200000000000000000000000000000000000000000000000000000000815260040161193e939291906135ec565b60405180910390fd5b61195584848484035f611e0c565b5b50505050565b5f73ffffffffffffffffffffffffffffffffffffffff168373ffffffffffffffffffffffffffffffffffffffff16036119cc575f6040517f96c6fd1e0000000000000000000000000000000000000000000000000000000081526004016119c391906128e0565b60405180910390fd5b5f73ffffffffffffffffffffffffffffffffffffffff168273ffffffffffffffffffffffffffffffffffffffff1603611a3c575f6040517fec442f05000000000000000000000000000000000000000000000000000000008152600401611a3391906128e0565b60405180910390fd5b611a47838383611fdb565b505050565b611a546118b0565b73ffffffffffffffffffffffffffffffffffffffff16611a72610e02565b73ffffffffffffffffffffffffffffffffffffffff1614611ad157611a956118b0565b6040517f118cdaa7000000000000000000000000000000000000000000000000000000008152600401611ac891906128e0565b60405180910390fd5b565b5f73ffffffffffffffffffffffffffffffffffffffff168273ffffffffffffffffffffffffffffffffffffffff1603611b43575f6040517fec442f05000000000000000000000000000000000000000000000000000000008152600401611b3a91906128e0565b60405180910390fd5b611b4e5f8383611fdb565b5050565b5f60055f9054906101000a900473ffffffffffffffffffffffffffffffffffffffff1690508160055f6101000a81548173ffffffffffffffffffffffffffffffffffffffff021916908373ffffffffffffffffffffffffffffffffffffffff1602179055508173ffffffffffffffffffffffffffffffffffffffff168173ffffffffffffffffffffffffffffffffffffffff167f8be0079c531659141344cd1fd0a4f28419497f9722a3daafe3b4186f6b6457e060405160405180910390a35050565b5f73ffffffffffffffffffffffffffffffffffffffff168273ffffffffffffffffffffffffffffffffffffffff1603611c85575f6040517f96c6fd1e000000000000000000000000000000000000000000000000000000008152600401611c7c91906128e0565b60405180910390fd5b611c90825f83611fdb565b5050565b600683604051611ca49190613251565b90815260200160405180910390206003015f9054906101000a900460ff1615611d02576040517f08c379a0000000000000000000000000000000000000000000000000000000008152600401611cf99061366b565b60405180910390fd5b604051806080016040528084815260200183815260200182815260200160011515815250600684604051611d369190613251565b90815260200160405180910390205f820151815f019081611d579190613019565b506020820151816001019081611d6d9190613019565b50604082015181600201556060820151816003015f6101000a81548160ff021916908315150217905550905050600783908060018154018082558091505060019003905f5260205f20015f909190919091509081611dcb9190613019565b507f4eac3655df424f8573afa99f7a60e0fbfe869e4b5f2e9e47ab6458050f6676d7838383604051611dff939291906135a9565b60405180910390a1505050565b5f73ffffffffffffffffffffffffffffffffffffffff168473ffffffffffffffffffffffffffffffffffffffff1603611e7c575f6040517fe602df05000000000000000000000000000000000000000000000000000000008152600401611e7391906128e0565b60405180910390fd5b5f73ffffffffffffffffffffffffffffffffffffffff168373ffffffffffffffffffffffffffffffffffffffff1603611eec575f6040517f94280d62000000000000000000000000000000000000000000000000000000008152600401611ee391906128e0565b60405180910390fd5b8160015f8673ffffffffffffffffffffffffffffffffffffffff1673ffffffffffffffffffffffffffffffffffffffff1681526020019081526020015f205f8573ffffffffffffffffffffffffffffffffffffffff1673ffffffffffffffffffffffffffffffffffffffff1681526020019081526020015f20819055508015611fd5578273ffffffffffffffffffffffffffffffffffffffff168473ffffffffffffffffffffffffffffffffffffffff167f8c5be1e5ebec7d5bd14f71427d1e84f3dd0314c0f7b2291e5b200ac8c7c3b92584604051611fcc919061241f565b60405180910390a35b50505050565b5f73ffffffffffffffffffffffffffffffffffffffff168373ffffffffffffffffffffffffffffffffffffffff160361202b578060025f82825461201f9190613689565b925050819055506120f9565b5f805f8573ffffffffffffffffffffffffffffffffffffffff1673ffffffffffffffffffffffffffffffffffffffff1681526020019081526020015f20549050818110156120b4578381836040517fe450d38c0000000000000000000000000000000000000000000000000000000081526004016120ab939291906135ec565b60405180910390fd5b8181035f808673ffffffffffffffffffffffffffffffffffffffff1673ffffffffffffffffffffffffffffffffffffffff1681526020019081526020015f2081905550505b5f73ffffffffffffffffffffffffffffffffffffffff168273ffffffffffffffffffffffffffffffffffffffff1603612140578060025f828254039250508190555061218a565b805f808473ffffffffffffffffffffffffffffffffffffffff1673ffffffffffffffffffffffffffffffffffffffff1681526020019081526020015f205f82825401925050819055505b8173ffffffffffffffffffffffffffffffffffffffff168373ffffffffffffffffffffffffffffffffffffffff167fddf252ad1be2c89b69c2b068fc378daa952ba7f163c4a11628f55a4df523b3ef836040516121e7919061241f565b60405180910390a3505050565b60405180608001604052805f73ffffffffffffffffffffffffffffffffffffffff1681526020015f8152602001606081526020015f81525090565b604051806080016040528060608152602001606081526020015f81526020015f151581525090565b5f81519050919050565b5f82825260208201905092915050565b5f5b8381101561228e578082015181840152602081019050612273565b5f8484015250505050565b5f601f19601f8301169050919050565b5f6122b382612257565b6122bd8185612261565b93506122cd818560208601612271565b6122d681612299565b840191505092915050565b5f6020820190508181035f8301526122f981846122a9565b905092915050565b5f604051905090565b5f80fd5b5f80fd5b5f73ffffffffffffffffffffffffffffffffffffffff82169050919050565b5f61233b82612312565b9050919050565b61234b81612331565b8114612355575f80fd5b50565b5f8135905061236681612342565b92915050565b5f819050919050565b61237e8161236c565b8114612388575f80fd5b50565b5f8135905061239981612375565b92915050565b5f80604083850312156123b5576123b461230a565b5b5f6123c285828601612358565b92505060206123d38582860161238b565b9150509250929050565b5f8115159050919050565b6123f1816123dd565b82525050565b5f60208201905061240a5f8301846123e8565b92915050565b6124198161236c565b82525050565b5f6020820190506124325f830184612410565b92915050565b5f6020828403121561244d5761244c61230a565b5b5f61245a84828501612358565b91505092915050565b5f81519050919050565b5f82825260208201905092915050565b5f819050602082019050919050565b61249581612331565b82525050565b6124a48161236c565b82525050565b5f82825260208201905092915050565b5f6124c482612257565b6124ce81856124aa565b93506124de818560208601612271565b6124e781612299565b840191505092915050565b5f608083015f8301516125075f86018261248c565b50602083015161251a602086018261249b565b506040830151848203604086015261253282826124ba565b9150506060830151612547606086018261249b565b508091505092915050565b5f61255d83836124f2565b905092915050565b5f602082019050919050565b5f61257b82612463565b612585818561246d565b9350836020820285016125978561247d565b805f5b858110156125d257848403895281516125b38582612552565b94506125be83612565565b925060208a0199505060018101905061259a565b50829750879550505050505092915050565b5f6020820190508181035f8301526125fc8184612571565b905092915050565b5f602082840312156126195761261861230a565b5b5f6126268482850161238b565b91505092915050565b5f805f606084860312156126465761264561230a565b5b5f61265386828701612358565b935050602061266486828701612358565b92505060406126758682870161238b565b9150509250925092565b5f80fd5b5f80fd5b7f4e487b71000000000000000000000000000000000000000000000000000000005f52604160045260245ffd5b6126bd82612299565b810181811067ffffffffffffffff821117156126dc576126db612687565b5b80604052505050565b5f6126ee612301565b90506126fa82826126b4565b919050565b5f67ffffffffffffffff82111561271957612718612687565b5b61272282612299565b9050602081019050919050565b828183375f83830152505050565b5f61274f61274a846126ff565b6126e5565b90508281526020810184848401111561276b5761276a612683565b5b61277684828561272f565b509392505050565b5f82601f8301126127925761279161267f565b5b81356127a284826020860161273d565b91505092915050565b5f602082840312156127c0576127bf61230a565b5b5f82013567ffffffffffffffff8111156127dd576127dc61230e565b5b6127e98482850161277e565b91505092915050565b5f6080820190508181035f83015261280a81876122a9565b9050818103602083015261281e81866122a9565b905061282d6040830185612410565b61283a60608301846123e8565b95945050505050565b5f60ff82169050919050565b61285881612843565b82525050565b5f6020820190506128715f83018461284f565b92915050565b5f806040838503121561288d5761288c61230a565b5b5f61289a8582860161238b565b925050602083013567ffffffffffffffff8111156128bb576128ba61230e565b5b6128c78582860161277e565b9150509250929050565b6128da81612331565b82525050565b5f6020820190506128f35f8301846128d1565b92915050565b5f805f606084860312156129105761290f61230a565b5b5f84013567ffffffffffffffff81111561292d5761292c61230e565b5b6129398682870161277e565b935050602084013567ffffffffffffffff81111561295a5761295961230e565b5b6129668682870161277e565b92505060406129778682870161238b565b9150509250925092565b5f81519050919050565b5f82825260208201905092915050565b5f819050602082019050919050565b6129b3816123dd565b82525050565b5f608083015f8301518482035f8601526129d382826124ba565b915050602083015184820360208601526129ed82826124ba565b9150506040830151612a02604086018261249b565b506060830151612a1560608601826129aa565b508091505092915050565b5f612a2b83836129b9565b905092915050565b5f602082019050919050565b5f612a4982612981565b612a53818561298b565b935083602082028501612a658561299b565b805f5b85811015612aa05784840389528151612a818582612a20565b9450612a8c83612a33565b925060208a01995050600181019050612a68565b50829750879550505050505092915050565b5f6020820190508181035f830152612aca8184612a3f565b905092915050565b612adb816123dd565b8114612ae5575f80fd5b50565b5f81359050612af681612ad2565b92915050565b5f8060408385031215612b1257612b1161230a565b5b5f83013567ffffffffffffffff811115612b2f57612b2e61230e565b5b612b3b8582860161277e565b9250506020612b4c85828601612ae8565b9150509250929050565b5f8060408385031215612b6c57612b6b61230a565b5b5f612b7985828601612358565b9250506020612b8a85828601612358565b9150509250929050565b5f805f60608486031215612bab57612baa61230a565b5b5f612bb886828701612358565b9350506020612bc98682870161238b565b925050604084013567ffffffffffffffff811115612bea57612be961230e565b5b612bf68682870161277e565b9150509250925092565b5f608082019050612c135f8301876128d1565b612c206020830186612410565b8181036040830152612c3281856122a9565b9050612c416060830184612410565b95945050505050565b7f4e487b71000000000000000000000000000000000000000000000000000000005f52602260045260245ffd5b5f6002820490506001821680612c8e57607f821691505b602082108103612ca157612ca0612c4a565b5b50919050565b7f4e487b71000000000000000000000000000000000000000000000000000000005f52603260045260245ffd5b7f4e487b71000000000000000000000000000000000000000000000000000000005f52601160045260245ffd5b5f612d0b8261236c565b91507fffffffffffffffffffffffffffffffffffffffffffffffffffffffffffffffff8203612d3d57612d3c612cd4565b5b600182019050919050565b7f416d6f756e74206d7573742062652067726561746572207468616e20300000005f82015250565b5f612d7c601d83612261565b9150612d8782612d48565b602082019050919050565b5f6020820190508181035f830152612da981612d70565b9050919050565b50565b5f612dbe5f83612261565b9150612dc982612db0565b5f82019050919050565b5f606082019050612de65f830185612410565b8181036020830152612df881846122a9565b90508181036040830152612e0b81612db3565b90509392505050565b7f496e73756666696369656e742062616c616e63650000000000000000000000005f82015250565b5f612e48601483612261565b9150612e5382612e14565b602082019050919050565b5f6020820190508181035f830152612e7581612e3c565b9050919050565b5f819050815f5260205f209050919050565b5f6020601f8301049050919050565b5f82821b905092915050565b5f60088302612ed87fffffffffffffffffffffffffffffffffffffffffffffffffffffffffffffffff82612e9d565b612ee28683612e9d565b95508019841693508086168417925050509392505050565b5f819050919050565b5f612f1d612f18612f138461236c565b612efa565b61236c565b9050919050565b5f819050919050565b612f3683612f03565b612f4a612f4282612f24565b848454612ea9565b825550505050565b5f90565b612f5e612f52565b612f69818484612f2d565b505050565b5b81811015612f8c57612f815f82612f56565b600181019050612f6f565b5050565b601f821115612fd157612fa281612e7c565b612fab84612e8e565b81016020851015612fba578190505b612fce612fc685612e8e565b830182612f6e565b50505b505050565b5f82821c905092915050565b5f612ff15f1984600802612fd6565b1980831691505092915050565b5f6130098383612fe2565b9150826002028217905092915050565b61302282612257565b67ffffffffffffffff81111561303b5761303a612687565b5b6130458254612c77565b613050828285612f90565b5f60209050601f831160018114613081575f841561306f578287015190505b6130798582612ffe565b8655506130e0565b601f19841661308f86612e7c565b5f5b828110156130b657848901518255600182019150602085019450602081019050613091565b868310156130d357848901516130cf601f891682612fe2565b8355505b6001600288020188555050505b505050505050565b5f6040820190506130fb5f830185612410565b818103602083015261310d81846122a9565b90509392505050565b5f81905092915050565b7f446f6e6174696f6e20746f2000000000000000000000000000000000000000005f82015250565b5f613154600c83613116565b915061315f82613120565b600c82019050919050565b5f61317482612257565b61317e8185613116565b935061318e818560208601612271565b80840191505092915050565b5f6131a482613148565b91506131b0828461316a565b915081905092915050565b5f81546131c781612c77565b6131d18186613116565b9450600182165f81146131eb576001811461320057613232565b60ff1983168652811515820286019350613232565b61320985612e7c565b5f5b8381101561322a5781548189015260018201915060208101905061320b565b838801955050505b50505092915050565b5f61324682846131bb565b915081905092915050565b5f61325c828461316a565b915081905092915050565b7f506172746e657220646f6573206e6f74206578697374000000000000000000005f82015250565b5f61329b601683612261565b91506132a682613267565b602082019050919050565b5f6020820190508181035f8301526132c88161328f565b9050919050565b7f496e76616c6964206164647265737300000000000000000000000000000000005f82015250565b5f613303600f83612261565b915061330e826132cf565b602082019050919050565b5f6020820190508181035f830152613330816132f7565b9050919050565b5f6133418261236c565b915061334c8361236c565b925082820261335a8161236c565b9150828204841483151761337157613370612cd4565b5b5092915050565b7f4e487b71000000000000000000000000000000000000000000000000000000005f52601260045260245ffd5b5f6133af8261236c565b91506133ba8361236c565b9250826133ca576133c9613378565b5b828204905092915050565b7f50757263686173652052657761726400000000000000000000000000000000005f82015250565b5f613409600f83612261565b9150613414826133d5565b602082019050919050565b7f4d61696e2053746f7265000000000000000000000000000000000000000000005f82015250565b5f613453600a83612261565b915061345e8261341f565b602082019050919050565b5f60808201905061347c5f830185612410565b6134896020830184612410565b818103604083015261349a816133fd565b905081810360608301526134ad81613447565b90509392505050565b7f506172746e6572206973206e6f742061637469766500000000000000000000005f82015250565b5f6134ea601583612261565b91506134f5826134b6565b602082019050919050565b5f6020820190508181035f830152613517816134de565b9050919050565b7f506172746e657220526564656d7074696f6e00000000000000000000000000005f82015250565b5f613552601283612261565b915061355d8261351e565b602082019050919050565b5f60608201905061357b5f830185612410565b818103602083015261358c81613546565b905081810360408301526135a081846122a9565b90509392505050565b5f6060820190508181035f8301526135c181866122a9565b905081810360208301526135d581856122a9565b90506135e46040830184612410565b949350505050565b5f6060820190506135ff5f8301866128d1565b61360c6020830185612410565b6136196040830184612410565b949350505050565b7f506172746e657220616c726561647920657869737473000000000000000000005f82015250565b5f613655601683612261565b915061366082613621565b602082019050919050565b5f6020820190508181035f83015261368281613649565b9050919050565b5f6136938261236c565b915061369e8361236c565b92508282019050808211156136b6576136b5612cd4565b5b9291505056fea2646970667358221220491884e6d3b6ea78aa386f70c4e9601d1339843da808d0f45af9571b5dab842964736f6c63430008140033",
  "immutableReferences": {},
  "source": "// SPDX-License-Identifier: MIT\r\npragma solidity ^0.8.0;\r\n\r\nimport \"@openzeppelin/contracts/token/ERC20/ERC20.sol\";\r\nimport \"@openzeppelin/contracts/access/Ownable.sol\";\r\n\r\ncontract TKNToken is ERC20, Ownable {\r\n    uint256 constant TKN_TO_USD = 54; // 1 TKN = $0.54 (scaled by 100)\r\n    \r\n    struct Partner {\r\n        string name;\r\n        string description;\r\n        uint256 discountRate;\r\n        bool isActive;\r\n    }\r\n    \r\n    struct Donation {\r\n        address donor;\r\n        uint256 amount;\r\n        string cause;\r\n        uint256 timestamp;\r\n    }\r\n    \r\n    mapping(string => Partner) public partners;\r\n    string[] public partnerNames;\r\n    Donation[] public donations;\r\n    \r\n    // Events\r\n    event TokensRewarded(address indexed to, uint256 usdSpent, uint256 tokens, string description, string partner);\r\n    event TokensBurned(address indexed from, uint256 amount, string description, string partner);\r\n    event DonationMade(address indexed donor, uint256 amount, string cause);\r\n    event PartnerAdded(string name, string description, uint256 discountRate);\r\n    event PartnerUpdated(string name, string description, uint256 discountRate);\r\n\r\n    constructor() ERC20(\"Token Rewards\", \"TKN\") Ownable(msg.sender) {\r\n        _mint(msg.sender, 1000 * 10**18); // Initial supply\r\n        \r\n        // Initialize default partners\r\n        _addPartner(\"Amazon Gift Coupon\", \"E-Commerce\", 30);\r\n        _addPartner(\"Apple Store Gift Card\", \"Tech Store\", 20);\r\n        _addPartner(\"Xbox\", \"Gaming\", 15);\r\n    }\r\n\r\n    // Add/update partners (owner only)\r\n    function _addPartner(string memory name, string memory description, uint256 discountRate) internal {\r\n        require(!partners[name].isActive, \"Partner already exists\");\r\n        partners[name] = Partner(name, description, discountRate, true);\r\n        partnerNames.push(name);\r\n        emit PartnerAdded(name, description, discountRate);\r\n    }\r\n    \r\n    function addPartner(string memory name, string memory description, uint256 discountRate) public onlyOwner {\r\n        _addPartner(name, description, discountRate);\r\n    }\r\n    \r\n    function updatePartner(string memory name, string memory description, uint256 discountRate) public onlyOwner {\r\n        require(partners[name].isActive, \"Partner does not exist\");\r\n        partners[name].description = description;\r\n        partners[name].discountRate = discountRate;\r\n        emit PartnerUpdated(name, description, discountRate);\r\n    }\r\n    \r\n    function togglePartner(string memory name, bool isActive) public onlyOwner {\r\n        require(bytes(partners[name].name).length > 0, \"Partner does not exist\");\r\n        partners[name].isActive = isActive;\r\n    }\r\n\r\n    // Reward tokens for purchases\r\n    function rewardPurchase(address to, uint256 usdSpent) public {\r\n        require(to != address(0), \"Invalid address\");\r\n        require(usdSpent > 0, \"Amount must be greater than 0\");\r\n        uint256 tokensToReward = (usdSpent * 5 * 10**18) / 10 / TKN_TO_USD; // 5 TKN per $10 spent\r\n        _mint(to, tokensToReward);\r\n        emit TokensRewarded(to, usdSpent, tokensToReward, \"Purchase Reward\", \"Main Store\");\r\n    }\r\n\r\n    // Burn tokens for general redemptions\r\n    function burn(uint256 amount, string memory description) public {\r\n        require(amount > 0, \"Amount must be greater than 0\");\r\n        _burn(msg.sender, amount);\r\n        emit TokensBurned(msg.sender, amount, description, \"\");\r\n    }\r\n\r\n    // Burn tokens for donations\r\n    function donate(uint256 amount, string memory cause) public {\r\n        require(amount > 0, \"Amount must be greater than 0\");\r\n        require(balanceOf(msg.sender) >= amount, \"Insufficient balance\");\r\n        _burn(msg.sender, amount);\r\n        donations.push(Donation(msg.sender, amount, cause, block.timestamp));\r\n        emit DonationMade(msg.sender, amount, cause);\r\n        emit TokensBurned(msg.sender, amount, string(abi.encodePacked(\"Donation to \", cause)), \"\");\r\n    }\r\n\r\n    // Burn tokens for partner network redemptions\r\n    function redeemPartnerReward(address user, uint256 amount, string memory partnerName) public {\r\n        require(user != address(0), \"Invalid address\");\r\n        require(amount > 0, \"Amount must be greater than 0\");\r\n        require(balanceOf(user) >= amount, \"Insufficient balance\");\r\n        require(partners[partnerName].isActive, \"Partner is not active\");\r\n        \r\n        _burn(user, amount);\r\n        emit TokensBurned(user, amount, \"Partner Redemption\", partnerName);\r\n    }\r\n\r\n    // Get all active partners\r\n    function getActivePartners() public view returns (Partner[] memory) {\r\n        uint256 activeCount = 0;\r\n        for (uint256 i = 0; i < partnerNames.length; i++) {\r\n            if (partners[partnerNames[i]].isActive) {\r\n                activeCount++;\r\n            }\r\n        }\r\n        \r\n        Partner[] memory activePartners = new Partner[](activeCount);\r\n        uint256 index = 0;\r\n        for (uint256 i = 0; i < partnerNames.length; i++) {\r\n            if (partners[partnerNames[i]].isActive) {\r\n                activePartners[index] = partners[partnerNames[i]];\r\n                index++;\r\n            }\r\n        }\r\n        return activePartners;\r\n    }\r\n\r\n    // Get donation history for a donor\r\n    function getDonations(address donor) public view returns (Donation[] memory) {\r\n        uint256 count = 0;\r\n        for (uint256 i = 0; i < donations.length; i++) {\r\n            if (donations[i].donor == donor) {\r\n                count++;\r\n            }\r\n        }\r\n        \r\n        Donation[] memory donorDonations = new Donation[](count);\r\n        uint256 index = 0;\r\n        for (uint256 i = 0; i < donations.length; i++) {\r\n            if (donations[i].donor == donor) {\r\n                donorDonations[index] = donations[i];\r\n                index++;\r\n            }\r\n        }\r\n        return donorDonations;\r\n    }\r\n\r\n    // Mint function restricted to owner (for admin purposes)\r\n    function mint(address to, uint256 amount) public onlyOwner {\r\n        _mint(to, amount);\r\n    }\r\n}",
  "sourcePath": "C:\\Users\\YASHAS\\token-rewards-portal\\contracts\\TKNToken.sol",
  "compiler": {
    "name": "solc",
    "version": "0.8.20+commit.a1b79de6.Emscripten.clang"
  },
  "schemaVersion": "3.4.16",
  "updatedAt": "2025-04-04T06:21:04.500Z",
  "networkType": "ethereum",
  "devdoc": {
    "errors": {
      "ERC20InsufficientAllowance(address,uint256,uint256)": [
        {
          "details": "Indicates a failure with the `spender`s `allowance`. Used in transfers.",
          "params": {
            "allowance": "Amount of tokens a `spender` is allowed to operate with.",
            "needed": "Minimum amount required to perform a transfer.",
            "spender": "Address that may be allowed to operate on tokens without being their owner."
          }
        }
      ],
      "ERC20InsufficientBalance(address,uint256,uint256)": [
        {
          "details": "Indicates an error related to the current `balance` of a `sender`. Used in transfers.",
          "params": {
            "balance": "Current balance for the interacting account.",
            "needed": "Minimum amount required to perform a transfer.",
            "sender": "Address whose tokens are being transferred."
          }
        }
      ],
      "ERC20InvalidApprover(address)": [
        {
          "details": "Indicates a failure with the `approver` of a token to be approved. Used in approvals.",
          "params": {
            "approver": "Address initiating an approval operation."
          }
        }
      ],
      "ERC20InvalidReceiver(address)": [
        {
          "details": "Indicates a failure with the token `receiver`. Used in transfers.",
          "params": {
            "receiver": "Address to which tokens are being transferred."
          }
        }
      ],
      "ERC20InvalidSender(address)": [
        {
          "details": "Indicates a failure with the token `sender`. Used in transfers.",
          "params": {
            "sender": "Address whose tokens are being transferred."
          }
        }
      ],
      "ERC20InvalidSpender(address)": [
        {
          "details": "Indicates a failure with the `spender` to be approved. Used in approvals.",
          "params": {
            "spender": "Address that may be allowed to operate on tokens without being their owner."
          }
        }
      ],
      "OwnableInvalidOwner(address)": [
        {
          "details": "The owner is not a valid owner account. (eg. `address(0)`)"
        }
      ],
      "OwnableUnauthorizedAccount(address)": [
        {
          "details": "The caller account is not authorized to perform an operation."
        }
      ]
    },
    "events": {
      "Approval(address,address,uint256)": {
        "details": "Emitted when the allowance of a `spender` for an `owner` is set by a call to {approve}. `value` is the new allowance."
      },
      "Transfer(address,address,uint256)": {
        "details": "Emitted when `value` tokens are moved from one account (`from`) to another (`to`). Note that `value` may be zero."
      }
    },
    "kind": "dev",
    "methods": {
      "allowance(address,address)": {
        "details": "See {IERC20-allowance}."
      },
      "approve(address,uint256)": {
        "details": "See {IERC20-approve}. NOTE: If `value` is the maximum `uint256`, the allowance is not updated on `transferFrom`. This is semantically equivalent to an infinite approval. Requirements: - `spender` cannot be the zero address."
      },
      "balanceOf(address)": {
        "details": "See {IERC20-balanceOf}."
      },
      "decimals()": {
        "details": "Returns the number of decimals used to get its user representation. For example, if `decimals` equals `2`, a balance of `505` tokens should be displayed to a user as `5.05` (`505 / 10 ** 2`). Tokens usually opt for a value of 18, imitating the relationship between Ether and Wei. This is the default value returned by this function, unless it's overridden. NOTE: This information is only used for _display_ purposes: it in no way affects any of the arithmetic of the contract, including {IERC20-balanceOf} and {IERC20-transfer}."
      },
      "name()": {
        "details": "Returns the name of the token."
      },
      "owner()": {
        "details": "Returns the address of the current owner."
      },
      "renounceOwnership()": {
        "details": "Leaves the contract without owner. It will not be possible to call `onlyOwner` functions. Can only be called by the current owner. NOTE: Renouncing ownership will leave the contract without an owner, thereby disabling any functionality that is only available to the owner."
      },
      "symbol()": {
        "details": "Returns the symbol of the token, usually a shorter version of the name."
      },
      "totalSupply()": {
        "details": "See {IERC20-totalSupply}."
      },
      "transfer(address,uint256)": {
        "details": "See {IERC20-transfer}. Requirements: - `to` cannot be the zero address. - the caller must have a balance of at least `value`."
      },
      "transferFrom(address,address,uint256)": {
        "details": "See {IERC20-transferFrom}. Skips emitting an {Approval} event indicating an allowance update. This is not required by the ERC. See {xref-ERC20-_approve-address-address-uint256-bool-}[_approve]. NOTE: Does not update the allowance if the current allowance is the maximum `uint256`. Requirements: - `from` and `to` cannot be the zero address. - `from` must have a balance of at least `value`. - the caller must have allowance for ``from``'s tokens of at least `value`."
      },
      "transferOwnership(address)": {
        "details": "Transfers ownership of the contract to a new account (`newOwner`). Can only be called by the current owner."
      }
    },
    "version": 1
  },
  "userdoc": {
    "kind": "user",
    "methods": {},
    "version": 1
  }
}